:020000040800F2
:10000000E80800208901000863230008C1200008D7
:10001000152300088F020008E528000800000000F2
:10002000000000000000000000000000FB230008AA
:100030000304000800000000F9230008FD23000865
:10004000A3010008A3010008A3010008A301000800
:10005000A3010008A3010008A3010008A3010008F0
:10006000A3010008A3010008A3010008A3010008E0
:10007000A3010008A3010008A3010008CD030008A4
:10008000A3010008A3010008A3010008A3010008C0
:10009000D9280008A3010008A3010008A301000853
:1000A000A3010008A3010008A3010008A3010008A0
:1000B00061240008A30100086D240008A3010008C2
:1000C000A3010008A3010008A3010008A301000880
:1000D000A3010008A3010008CD280008A30100081F
:1000E000A3010008A3010008A301000800F002F822
:1000F00000F03AF80AA090E8000C82448344AAF188
:100100000107DA4501D100F02FF8AFF2090EBAE885
:100110000F0013F0010F18BFFB1A43F0010318473B
:10012000B4300000D4300000103A24BF78C878C141
:10013000FAD8520724BF30C830C144BF04680C60ED
:10014000704700000023002400250026103A28BF35
:1001500078C1FBD8520728BF30C148BF0B60704739
:100160001FB51FBD10B510BD00F058F81146FFF7C0
:10017000F7FF02F0E5FB00F076F803B4FFF7F2FFBB
:1001800003BC00F07DF8000009488047094800479B
:10019000FEE7FEE7FEE7FEE7FEE7FEE7FEE7FEE737
:1001A000FEE7FEE704480549054A064B7047000094
:1001B0005F240008ED000008E8020020E8080020A5
:1001C000E8040020E80400204FF0000200B51346C8
:1001D00094469646203922BFA0E80C50A0E80C5067
:1001E000B1F12001BFF4F7AF090728BFA0E80C5018
:1001F00048BF0CC05DF804EB890028BF40F8042B11
:1002000008BF704748BF20F8022B11F0804F18BF7D
:1002100000F8012B7047704770477047754600F033
:100220002BF8AE4605006946534620F00700854688
:1002300018B020B5FFF7B6FFBDE820404FF000062C
:100240004FF000074FF000084FF0000B21F00701BE
:10025000AC46ACE8C009ACE8C009ACE8C009ACE801
:10026000C0098D46704710B50446AFF300802046A4
:10027000BDE81040FFF781BF0048704784020020AE
:1002800001491820ABBEFEE7260002007047FEE7DA
:1002900010B50C460068184988422BD140F206215F
:1002A000C81EA4F50072023A06D08C4208D1134948
:1002B000134802F030F809E011481049183815E0E9
:1002C000844203D10E480D4918300FE0B4F5017F88
:1002D00009D0B4F5A17F0DD10948BDE81040074908
:1002E0004C3801F0EEBE064804493030BDE81040FD
:1002F00002F011B810BD000000640040140000209E
:100300002002002010B58AB0002101220446CDE968
:100310000612039104910E20CDE908200591009169
:10032000019102916946204600F0E8F808B100F01A
:1003300069F8204600F0B6FB08B100F063F802212E
:10034000204600F061F808B100F05CF80121204679
:1003500000F05AF8002801D000F054F80AB010BD9F
:1003600070B58AB00020DDE90E540826089004908C
:10037000CDE90506CDE90210100A8DF800008DF8D0
:100380000120180A8DF80200280A8DF804008DF863
:100390000550200A8DF806008DF803308DF80740CF
:1003A00008AB6A4602A9024800F040F80AB070BDE6
:1003B000300000200448002101808180018181817A
:1003C0000321C17441757047BC010020014800F051
:1003D0000BBC00007801002030B590F8405001249B
:1003E000AC40C56B6C60046863604368102B0368A5
:1003F00003D099600068C26030BD9A600068C16037
:1004000030BD704772B6FEE790F82020012A07D071
:10041000022A05D0416A41F48021416201207047DF
:10042000006842690A43426100207047F0B590F8C5
:1004300020500468A468012D05D0022D03D0416A24
:1004400041F4802157E014F0406F01D1E5004FD511
:10045000C4F301640125A5401D608D684FF4C0738D
:100460009DB1CE6835434E6845EAC605066803EB84
:100470000417F5514FF4C275076805EB04150E69B2
:100480007E51097D012905D009E00E88CD6845EA35
:100490004655EBE701684E5946F480764E51117986
:1004A000D579567941EA056195792D0445EA062505
:1004B00029434FF4C676056806EB0416A951117856
:1004C000D57841EA0561957852782D0445EA0222F3
:1004D00011434FF4C475026805EB041551510068CF
:1004E00003EB0411425842F0010242500020F0BDDB
:1004F000416A41F4001141620120F0BD10B590F84D
:1005000020300268012B07D0022B05D0416A41F44C
:1005100080214162012010BDD2F8000240F00100AC
:10052000C2F80002087D00F01F0301209840D2F8B5
:100530001C328343C2F81C32CB69B3B9D2F80C32F7
:100540008343C2F80C328C894B6864F31F434C69B7
:1005500002EBC404C4F840320C890B6864F31F43F7
:100560004C6902EBC404C4F84432CB69012B16D1A8
:10057000D2F80C320343C2F80C320C884B6864F397
:100580001F434C6902EBC404C4F840320C89CB68A9
:1005900064F31F434C6902EBC404C4F844328B6912
:1005A000002BD2F804320FD053EA0003C2F8043211
:1005B0000B69002BD2F8143208D00343C2F814326E
:1005C000096A012904D008E08343EFE78343F5E794
:1005D000D2F81C120143C2F81C12D2F8000220F01B
:1005E0000100C2F80002002010BD704770B590F8FD
:1005F0002040012C05D0022C03D0416A41F4802117
:1006000028E0046809B32469A40720D04FF4D87403
:10061000056804EB01142D5915F004059560056873
:100620002D591AD0ED08556005682C5904F00204C4
:10063000D4604FF4DA74056804EB01142E5906F007
:100640000F06082E0CD308250DE0E468DCE7416AAC
:1006500041F400114162012070BD6D0D1560E3E7AA
:100660002D5905F00F05156105682D59C5F30725AE
:10067000956105682C59240C54614FF4DC720468B0
:1006800002EB0112A4581C700468A458240A5C7080
:100690000468A458240C9C700468A258120EDA70E6
:1006A0004FF4DE72046802EB0112A4581C71046856
:1006B000A458240A5C710468A458240C9C71046832
:1006C000A258120EDA71006829B1016941F02001C7
:1006D0000161002070BDC16841F02001C160F8E7F0
:1006E0002DE9F05F0546006800244669D0F80490C3
:1006F0008768D0F80CB0D0F810A0D0F81880F107B7
:1007000048D0F90714D001218160B80703D52846E5
:1007100000F0F5F90CE0780702D54FF4006407E02B
:10072000380702D54FF4805402E0284600F0E6F97D
:10073000F80516D529684FF480708860B80503D590
:10074000284600F0DEF90CE0780502D544F40054A8
:1007500007E0380502D544F4804402E0284600F062
:10076000CFF9F80316D529684FF480308860B803B4
:1007700003D5284600F0C7F90CE0780302D544F40D
:10078000004407E0380302D544F4803402E02846F0
:1007900000F0B8F9300707D55FEACB6004D52968C7
:1007A000102044F40074C86070074FF0080707D5A4
:1007B0005FEA0B7004D52868C760284600F05AF934
:1007C000B00706D52868C068800702D0284600F028
:1007D00053F9700607D55FEACA6004D5296810206E
:1007E00044F480640861B00607D55FEA0A7004D556
:1007F00028680761284600F051F9F00606D52868F8
:100800000069800702D0284600F049F9B00308D5F6
:100810005FEAC96005D5296810204860284600F0C5
:100820003FF9F00307D55FEA097004D528684760EF
:10083000284600F069F9300446D55FEA497040D592
:10084000F00504D55FEAC87001D044F00104B0059A
:1008500004D55FEA887001D544F00204700504D520
:100860005FEA487001D544F00404300529D518F03A
:10087000700F26D008F07000402815D006DC102834
:1008800009D020280AD0302816D10AE050280ED0EE
:10089000602811D10EE044F008040DE044F010048B
:1008A0000AE044F0200407E044F0400404E044F08F
:1008B000800401E044F480742868816921F07001AB
:1008C0008161296804204860002C05D0686A2043B3
:1008D00068622846FFF789FEBDE8F09F70B5040006
:1008E00003D094F8200010B104E0012070BD204630
:1008F00000F082F82068016841F00101016000F019
:100900007DFB0546052604E000F078FB401B0A2825
:1009100011D820684068C007F6D02068016821F02F
:100920000201016000F06AFB05460BE000F066FB87
:10093000401B0A2806D9606A40F40030606284F8DF
:100940002060D2E7206840688007EFD4207E01282D
:10095000206801683DD021F080010160607E01289F
:100960002068016838D021F040010160A07E012894
:100970002068016833D021F020010160E07E012869
:10098000206801682ED041F010010160207F01280D
:100990002068016829D021F008010160607F0128EA
:1009A0002068016824D021F004010160D4E902012B
:1009B0000843D4E90412114308436168491E0843FF
:1009C0002168C86100206062012084F820000020B6
:1009D00070BD41F08001C0E741F04001C5E741F042
:1009E0002001CAE721F01001CFE741F00801D4E768
:1009F00041F00401D9E7000010B586B00021009154
:100A00000191029103910068174988422AD1174841
:100A1000C16941F00071C161C16901F000710491C7
:100A2000816941F0040181618069114C00F004008A
:100A300004904FF4006000906946204600F0E4F90D
:100A4000A0140090022001900320039069462046E4
:100A500000F0DAF900221146142000F03BFB1420CC
:100A600000F02AFB06B010BD0064004000100240F8
:100A7000000801407047000010B50446054B064AC7
:100A80000021FFF7B3FD044801682046BDE810408F
:100A9000FFF7FEBB14000020EC01002070477047F8
:100AA0007047000070B5044690F82000012804D07B
:100AB000606A40F40020606218E0022084F82000A0
:100AC0002068016821F00101016000F097FA0546F5
:100AD0000EE000BF00F092FA401B0A2808D9606AB5
:100AE00040F400306062052084F82000012070BDD1
:100AF00020684068C007EDD1606270BD70477047E4
:100B00007047704770477047704710B590F82110D4
:100B10000022022905D00421816380F820200120D1
:100B200010BD01680B6823F00E030B6001680B68B1
:100B300023F001030B6090F84030C46B012101FAEF
:100B400003F3636080F8211080F82020104610BD68
:100B500010B590F821100024022903D004218163EC
:100B600001243DE001680A6822F00E020A60016873
:100B70000A6822F001020A601A4A0168914201D112
:100B8000012121E0174A1432914201D110211BE0CA
:100B9000144A2832914201D1891515E0114A3C329C
:100BA000914201D189140FE00E4A5032914202D194
:100BB0004FF4803108E00B4A6432914202D14FF485
:100BC000801101E04FF08071064A083A516001211E
:100BD00080F82110002180F82010416B01B1884776
:100BE000204610BD080002402DE9F05FC16B0C6883
:100BF00001680B68D0F840C0042202FA0CF2494D9B
:100C0000DFF824A1494E4A4FDFF828B1DFF828E188
:100C100022422CD05A072AD50A68920603D40A68C1
:100C200022F004020A600168A94201D1042219E0FD
:100C3000514501D1402215E0B14202D14FF480620A
:100C400010E0B94202D14FF480420BE0594502D185
:100C50004FF4802206E0714502D14FF4800201E09A
:100C60004FF080622F4908394A60C16A3BE04FF07B
:100C7000020808FA0CF818EA040F4FF000094FF0C8
:100C8000010235D05FEA837832D50B689B0605D424
:100C90000B6823F00A030B6080F821200168A94249
:100CA00001D1022219E0514501D1202215E0B142C3
:100CB00002D14FF4007210E0B94202D14FF4005259
:100CC0000BE0594502D14FF4003206E0714502D1E4
:100CD0004FF4001201E04FF00072124908394A60E7
:100CE00080F82090816A00291AD0BDE8F05F08479B
:100CF000082505FA0CF5254212D01B0710D50B6804
:100D000023F00E030B6090F84010C36B02FA01F160
:100D10005960826380F8212080F82090016BE2E71F
:100D2000BDE8F09F080002401C0002403000024075
:100D300044000240580002406C00024030B528B325
:100D400008C8134914221944B1FBF2F18900C163A8
:100D500010498163022141771A6843F6F0718A4392
:100D6000D0E900142143D0E902452C432143046912
:100D700021434469214384692143114319600021BF
:100D80004163012242770177084630BD012030BD22
:100D9000F8FFFDBF0000024070B5044690F8200047
:100DA000002501280CD0012084F8200094F821604F
:100DB0000020012E06D084F820000225284670BDB0
:100DC000022070BD022684F82160A06320680668B6
:100DD00026F0010606602046FFF7FEFAE06A0028CA
:100DE0002068016802D041F00E0106E021F0040104
:100DF00001602068016841F00A0101602068016813
:100E000041F001010160D9E72DE9F84FDFF8B89111
:100E10000024A9F1040B23460F2709F1040AABF1C2
:100E2000040EC9E00125A5402A40AA427DD1674EA3
:100E3000D1F804C0ACEB0608B44532D014DCBCF1E8
:100E4000030F3AD009DCBCF1000F2AD0BCF1010F2E
:100E50001CD0BCF1020F31D11DE0BCF1110F17D035
:100E6000BCF1120F2AD119E0B8F5881F19D006DCA1
:100E7000B8F5803F15D0B8F5801F1FD111E0B8F547
:100E8000001F0ED0B8F5041F18D10AE0CB6815E09A
:100E9000CB681B1D12E0CB6808330FE0CB680C3326
:100EA0000CE08B682BB1012B4FF0080303D0456198
:100EB00004E0042302E0056100E00023FF2A01D8DA
:100EC000064601E000F104064FEA840501D9A5F1C8
:100ED0002005D6F8008007FA05FC28EA0C0803FA7A
:100EE00005F548EA0508C6F800804D68ED0062D5B2
:100EF000374DAE6946F00106AE61AD6924F00306D8
:100F000005F001050095334D06EB050CDCF80850A3
:100F1000A607360F07FA06F825EA0805DFF8B880B5
:100F2000404503D14FF0000817E044E0DFF8AC8003
:100F3000404502D14FF001080FE0DFF8A4804045A2
:100F400002D14FF0020808E0DFF89880404502D156
:100F50004FF0030801E04FF0040808FA06F848EAE9
:100F60000508CCF808804D68D9F80060ED024D46C0
:100F700001D5164300E096432E604D68DAF8006014
:100F8000AD02554601D5164300E096432E604D68EC
:100F9000DBF80060AD035D4601D5164300E09643E3
:100FA0002E604D68DEF80060ED03754601D51643EE
:100FB00000E096432E60641C0D682A46E5407FF4ED
:100FC00031AFBDE8F88F00000804014000001110A7
:100FD000001002400000014000080140000C0140E8
:100FE00000100140001401408068084000D001203A
:100FF00070470AB1016170470904FBE70148806846
:101000007047000004000020024881680278114403
:101010008160704704000020074810B5016841F066
:1010200010010160032000F075F80F2000F006F8B1
:1010300000F024F8002010BD0020024070B50D4DD6
:1010400004464FF47A712878B1FBF0F00A49096838
:10105000B1FBF0F000F0DCFA48B9102C07D2002206
:101060002146501E00F036F800206C6070BD012053
:1010700070BD000004000020100000200C4808B5DE
:10108000816941F001018161816901F001010091F3
:10109000C16941F08051C161C06900F08050009089
:1010A0000448416821F0E06141F00071416008BDF1
:1010B0000010024000000140002809DB00F01F0280
:1010C000012191404009800000F1E020C0F80011AA
:1010D00070470000F0B40E4B1B680C46C3F30223AC
:1010E000C3F10705042D00D90425191D072901D2D4
:1010F000002300E0DB1E012606FA05F1491E21400F
:1011000099409E40761E16403143F0BC01F0EBBB87
:101110000CED00E0064900F0070208684FF6FF03F7
:10112000184040EA0220034A10430860704700005C
:101130000CED00E00000FA052DE9F0470F46050030
:1011400061D0434E306800F00700B84209D23068E1
:1011500020F0070038433060306800F00700B842E4
:1011600051D128683B4C810712D5400703D56068F0
:1011700040F4E06060602878000703D5606840F4C0
:10118000605060606068A96820F0F000084360600B
:101190002878C00728D06868012810D02168022864
:1011A00010D0890700292EDA616821F0030101437C
:1011B0006160FFF723FF804641F288390DE0216826
:1011C0008903EFE78901EDE7FFF718FFA0EB0801BE
:1011D000494502D90320BDE8F0876068696800F0DE
:1011E0000C00B0EB810FEFD1306800F00700B8427F
:1011F0000BD9306820F0070038433060306800F0C9
:101200000700B84201D00120E5E72878400705D55E
:101210006068E96820F4E0600843606028780007AF
:1012200006D56068296920F4605040EAC10060601A
:1012300000F038F86168084AC1F30311515CC840F6
:101240000649086006480068FFF7F8FE0020C2E77C
:101250000020024000100240BC31000810000020B5
:10126000080000200448054900684968044AC1F3A1
:101270000221515CC840704710000020001002405D
:10128000CC3100080448054900684968044AC1F3A4
:10129000C221515CC840704710000020001002407D
:1012A000CC3100080E4A51680E4801F00C03042BA3
:1012B00011D0082B0FD10C48C1F38343C903C05C84
:1012C0000AD55168084AC1F34041921E515C054A53
:1012D0005043B0FBF1F070470449484370470000A9
:1012E0000010024000127A00AC31000800093D00F5
:1012F0002DE9F84F040070D02078C04DC00749D0C8
:101300006868C0F38100012807D06868C0F38100D5
:10131000022809D16868C00306D52868800339D53A
:1013200060680028E7D035E06068B0F5803F0BD0FA
:1013300010B1B0F5A02F11D0286820F480302860BB
:10134000286820F4802002E0286840F4803028607B
:10135000606890B1FFF752FE06460AE0286840F444
:1013600080202860F0E700BFFFF748FE801B64285C
:1013700073D828688003F7D50CE0FFF73FFE0646D8
:1013800005E000BFFFF73AFE801B6428F0D828680C
:101390008003F7D420789A4E80074FF001094FF070
:1013A000000839D5686810F00C0F07D06868C0F3E2
:1013B0008100022809D16868C00306D42868800724
:1013C00014D52069012808D110E02069B0B1C6F811
:1013D0000090FFF713FE074605E00AE1FFF70EFE57
:1013E000C01B0228C4D828688007F7D5286861691F
:1013F00020F0F80040EAC10028600DE0C6F8008047
:10140000FFF7FCFD074604E0FFF7F8FDC01B0228CC
:1014100023D828688007F7D4207800072CD579488E
:10142000A169D9B1C0F80090FFF7E8FD074604E0D4
:10143000FFF7E4FDC01B02280FD8686A8007F7D5C4
:1014400071484FF4FA510068B0FBF1F0009000BF12
:101450000098411E0091FAD20EE080E0C0F80080B2
:10146000FFF7CCFD074604E0FFF7C8FDC01B0228CC
:1014700075D8686A8007F7D42078400760D5E86996
:101480000027C00008D4E86940F08050E861E869AE
:10149000012700F0805000905C480168C90513D412
:1014A0000168834641F480710160FFF7A7FD824621
:1014B00006E000BFFFF7A2FDA0EB0A0064284ED8AB
:1014C000DBF80000C005F5D5E06801280AD008B1B6
:1014D000052813D0286A20F001002862286A20F02D
:1014E000040002E0286A40F001002862E06841F24E
:1014F000883B98B1FFF782FD82460BE0286A40F0F6
:1015000004002862EEE700BFFFF778FDA0EB0A01B8
:1015100059455AD8286A8007F6D50CE0FFF76EFDCA
:10152000824605E0FFF76AFDA0EB0A0159454CD859
:10153000286A8007F6D41FB1E86920F08050E8617E
:10154000E06988B36968C1F38101022944D00228A7
:10155000C6F8608004D0FFF751FD044638E034E05F
:10156000FFF74CFD074604E0FFF748FDC01B0228CB
:101570002BD828688001F7D4206AB0F5803F05D1C8
:101580006868A16820F4003008436860D4E9080165
:101590000843696821F4741108436860C6F86090D4
:1015A000FFF72CFD044606E025E000BFFFF726FD0F
:1015B000001B022809D828688001F7D51BE000BF6E
:1015C000FFF71CFD001B022802D90320BDE8F88F9D
:1015D00028688001F4D40EE00128F7D06868226AF8
:1015E00000F48031914204D1616A00F470108842A5
:1015F00001D00120EAE70020E8E7000000100240E7
:10160000000042428004424210000020007000406E
:1016100010B5401EB0F1807F01D3012010BD4FF006
:10162000E02460610F21601701F05DF90020A061E6
:1016300007202061002010BD7047704770B590F8FA
:101640003C20012A26D0012480F83C40022280F868
:101650003D2003685A689D6822F070060A6832438C
:101660005A600D4B02689A4208D0B2F1804F05D003
:101670000A4B9A4202D00A4B9A4204D1496825F09B
:1016800080031943916080F83D40002180F83C10B0
:10169000084670BD022070BD002C014000040040CF
:1016A0000008004010B5040003D094F83D0010B1CC
:1016B00007E0012010BD002084F83C00204600F027
:1016C0001FF8022084F83D00211D206800F0D4FEA0
:1016D000012084F8460084F83E0084F83F0084F836
:1016E000400084F8410084F8420084F8430084F804
:1016F000440084F8450084F83D00002010BD00003F
:1017000008B501681448B1F1804F14D0134A9142D2
:1017100020D1C16941F00401C161C069002200F01B
:101720000400009002211E20FFF7D4FC1E20BDE81B
:101730000840FFF7C1BCC16941F00101C161C06946
:10174000002200F00100009001211C20FFF7C2FCE4
:101750001C20ECE708BD000000100240000800401B
:1017600090F83D10012901D001207047022180F836
:101770003D100168CA6842F00102CA6000680B4966
:10178000884208D0B0F1804F05D00949884202D084
:101790000849884204D1816801F00701062903D075
:1017A000016841F00101016000207047002C0140F8
:1017B000000400400008004070B5044690F83C006A
:1017C0000025012817D0012684F83C60022084F807
:1017D0003D002068826822F0770222F47F42826016
:1017E0000868502838D00DDC20284FD005DC90B395
:1017F000102811D14AE0022070BD302846D0402880
:101800000AD13BE060282FD070280DD0B0F5805F62
:1018100003D0B0F5005F12D0012584F83D600020B0
:1018200084F83C00284670BDCB68D1E901212068CE
:1018300000F05EFE2068816841F0770109E0CB6826
:10184000D1E90121206800F053FE2068816841F44D
:1018500080418160E1E719E0CA684968206800F0CA
:1018600059FE5021206806E0CA684968206800F0E7
:1018700062FE6021206800F045FECEE7CA68496834
:10188000206800F047FE40212068F4E72268014606
:101890001046F0E770472DE9F04104460068C6683D
:1018A00005694FF00007A90713D5B10711D5F91E37
:1018B000016101202077206880698007204602D0DE
:1018C000FFF7E8FF04E000F07EF8204600F07CF827
:1018D0002777680716D5700714D521686FF00400C4
:1018E0000861022020772068806910F4407F20463C
:1018F00002D0FFF7CFFF04E000F065F8204600F0CB
:1019000063F82777280715D5300713D521686FF0BE
:1019100008000861042020772068C06980072046FD
:1019200002D0FFF7B7FF04E000F04DF8204600F0CA
:101930004BF82777E80616D5F00614D521686FF026
:1019400010000861082020772068C06910F4407FEB
:10195000204602D0FFF79EFF04E000F034F8204656
:1019600000F032F82777E80708D0F00706D02168A2
:101970006FF001000861204600F028F8280608D51D
:10198000300606D521686FF0800008612046FFF719
:1019900053FE680608D5700606D521686FF0400032
:1019A0000861204600F072F9A8060AD5B00608D5ED
:1019B00021686FF0200008612046BDE8F041FFF784
:1019C0003CBEBDE8F0817047704700002DE9FE4F36
:1019D000824600680025A04CB0F1804F7ED19F4F19
:1019E0003878401CC0B23870C82801D3C82038707D
:1019F0004FF4006631469A48FFF7F6FA40B1E580A9
:101A00002078984EDFF860924FF4207BE8B15DE0DB
:101A1000E088401C80B2E0800328F1D9DFF84082E2
:101A200031464046FFF7E0FA0028E9D1207850B16E
:101A30000020B1462070464649463046FFF7D4FAAA
:101A40000028F9D0DCE70120F3E7B9F80000C84628
:101A5000584501D1002200E001224FF40051804896
:101A6000FFF7C7FA38780A2827D2B8F8000001F043
:101A700047FA7E4901F024FB01F0BEF87C4A7D4B19
:101A800000F0BCFF00F088FF8046E060B6F900007F
:101A900001F01EFA4146009001F0DAF80099009535
:101AA000CDE90150744B754A754800F05BFC01F0BC
:101AB000F3F903B20095019502E00095002301952A
:101AC00000224FF400716F48FEF74AFC207801288D
:101AD00004D1B9F80000C846584500E0A8E064D138
:101AE000A0880E2865D82089401C80B22081B0F5DE
:101AF000FA7F25D8B6F90090A9F5827001F0E8F9CF
:101B00000090484601F0E4F9014600980095CDE9BF
:101B100001504FF08043594A594800F023FC01F02E
:101B2000BBF903B2009500224FF4007155480195AE
:101B3000FEF716FC00224FF400514948FFF759FA0E
:101B40002089A0F2F510B0F5F97F25D8B6F90090FC
:101B500009F5827001F0BCF90090484601F0B8F92F
:101B6000014600980095CDE901504FF08043434A6B
:101B7000434800F0F7FB01F08FF903B20095002213
:101B80004FF400713F480195FEF7EAFB00224FF445
:101B900000513348FFF72DFA2089B0F57A7F00D93C
:101BA0002581B8F80000584503D06420A080258125
:101BB00002E0A08809283BD980B2401E80B2A080F4
:101BC0000F2801D80820A08038780A2830D2B8F829
:101BD000000001F095F9254901F072FA01F00CF8C6
:101BE000234A244B00F00AFF00F0D6FE0122E060F9
:101BF00051031B48FFF7FDF9B6F9000001F068F941
:101C00000646E16801F024F80095CDE9015031461F
:101C1000194B1A4A1A4800F0A5FB01F03DF903B22E
:101C2000009500224FF4007116480195FEF798FBCD
:101C30001549DAF8000088420CD1A078401CC0B2E7
:101C4000A070322804D36570BDE8FE4FFEF7B2BB2A
:101C500001206070BDE8FE8F200000201C000020E5
:101C6000000C0140080200201E000020000020445B
:101C70009A9999999999E93F00002040CDCC4C3D23
:101C800068020020300000200008004070477047C4
:101C900070470000F8B5016804460868CA684B69D7
:101CA00010F00F0F4FF0000559D003F0010602F4B9
:101CB0009077374365D0C10705D0D10503D5616C56
:101CC00041F001016164410705D5D90703D0616C7A
:101CD00041F002016164810705D5D90703D0616C29
:101CE00041F004016164010707D502F0200131438E
:101CF00003D0616C41F008016164616C00293AD045
:101D0000800604D5900602D5204600F0DAFC206853
:101D10004069616CC0F38010090700D460B32046AD
:101D200000F09AFC20684069400621D520681430F4
:101D300050E8001F21F0400140E80012002AF5D1D0
:101D4000E06BA8B16D494163E06BFEF701FF00282D
:101D500011D0E06B416B01B0BDE8F040084783064D
:101D60000FD593060DD52046BDE8F84000F0A9BC7C
:101D70002046FFF78DFFF8BD2046FFF789FF656419
:101D8000F8BD266B2023012E7CD1C6067AD5D60657
:101D900078D508684868009048694FF00206400608
:101DA00040D5E16B086840680004000CE8D0A28DC3
:101DB0008242E5D9E085886920282DD020680C3042
:101DC00050E8001F21F4807140E80012002AF5D18C
:101DD0002068143050E8001F21F0010140E8001293
:101DE000002AF5D12068143050E8001F21F040018E
:101DF00040E80012002AF5D184F8423025632068BB
:101E00000C3050E8001F21F0100140E80012002AB9
:101E1000F5D1E06BFEF779FE6663A08DE18D401A87
:101E200081B22AE0A08DE18D401A81B2E08D0028B8
:101E3000A6D00029A4D022680C3252E8000F20F46A
:101E4000907042E80007002FF5D12068143050E868
:101E5000002F22F0010240E80027002FF5D184F87E
:101E60004230256320680C3050E8002F22F0100229
:101E700040E80023002BF5D166632046FFF707FFFB
:101E8000F8BDFFE705062BD5150629D594F84100C6
:101E90002128F5D1A068B0F5805F01D12069B0B1EB
:101EA000206A411C2162216800784860E08C401E55
:101EB0000004000CE084E3D12068C16821F08001B7
:101EC000C1602068C16841F04001C160D8E7206A64
:101ED0000088C0F308004860206A801C2062E5E7A3
:101EE0004006CDD55006CBD5CA68204622F0400228
:101EF000CA6084F8413000F0E2F8C1E75B250008D1
:101F000070B5040004D094F84100002510B106E03B
:101F1000012070BD84F84050204600F023F82420B2
:101F200084F841002068C16821F40051C160204656
:101F300000F028FC2068016921F4904101612068CB
:101F4000416921F02A0141612068C16841F40051D2
:101F5000C1606564202084F8410084F84200656314
:101F6000002070BDF0B585B0002400940194029467
:101F700003940646344F0368344902200322344D4B
:101F8000BB4234D18B6943F480438B618B6903F48A
:101F9000804304938B6943F004038B618969039246
:101FA00001F0040104910102CDE9001069462846C0
:101FB000FEF72AFF2815CDE9000469462846029459
:101FC000FEF722FF244D2348C5E900048020C5E91F
:101FD00002402C616C61AC612846EC61FEF7AEFEFC
:101FE00008B1FEF70FFAF5636E6205B0F0BD1B4E47
:101FF000B342FAD1CB6943F40033CB61CB6903F42C
:10200000003304938B6943F004038B618969039265
:1020100001F0040104910421CDE90010694628462D
:10202000FEF7F2FE0820CDE9000469462846029436
:10203000FEF7EAFE002211462620FFF74BF8262085
:10204000FFF73AF8D1E700000038014000100240E5
:102050000008014058000240780100200044004080
:1020600090F84230202B01D00220704721B11AB1E4
:102070000023036300F0E2BB0120704700680B49B6
:10208000884211D10A480178CD2908D1C178DC29CC
:1020900005D1B0F8011007484180002101700422E9
:1020A00003490548FFF7DCBF7047000000380140D6
:1020B000000000201C000020E8000020704770474E
:1020C000FEE70A789C2A0BD14A7882754A88828278
:1020D000028A42828A88028202884280C9880180FC
:1020E000704700000F4810B50D49016002214160A2
:1020F00000214FF470228160C0E903124161017632
:10210000417601228276C27601774177FEF7E6FBBF
:10211000002803D0BDE81040FEF774B910BD0000E0
:102120000064004030000020094808B5416941F0D2
:10213000010141614069002200F001000090114658
:102140000F20FEF7C7FFBDE808400F20FEF7B4BF21
:102150000010024070B586B000241C480094019421
:1021600002940394816941F020018161816901F049
:1021700020010491816941F004018161816901F0CC
:1021800004010491816941F0080181618069104E68
:1021900000F008004FF41055049000222946304604
:1021A000FEF727FF009501250220CDE9015003909D
:1021B00069463046FEF728FEE8028DE831006946A0
:1021C0003046FEF721FE06B070BD00000010024050
:1021D000000C014010B586B000241748009401940B
:1021E0000294039404944FF080410594016040F2FE
:1021F000CF21C0E9011440F2CF71C0E9031484611A
:10220000FFF750FA08B1FEF7FDF84FF48050009048
:1022100069460948FFF7D0FA08B1FEF7F3F80494CD
:1022200004A905480594FFF709FA002801D0FEF734
:10223000E9F806B010BD00005800002010B586B0C7
:1022400000241748009401940294039404941349C1
:10225000059401604721C0E9011440F2E731C0E96B
:1022600003148461FFF71EFA08B1FEF7CBF84FF4B0
:102270008050009069460A48FFF79EFA08B1FEF7C1
:10228000C1F8049404A906480594FFF7D7F900287B
:1022900001D0FEF7B7F806B010BD000000080040FE
:1022A000A00000200C4810B50A4901604FF41651F7
:1022B0004160002181600422C160C0E90412816193
:1022C000C161FFF71DFE002803D0BDE81040FEF7F6
:1022D00099B810BD00380140E80000200C4810B546
:1022E0000A4901604FF416514160002181600C22BF
:1022F000C160C0E904128161C161FFF701FE0028DD
:1023000003D0BDE81040FEF77DB810BD004400408A
:1023100030010020FEE7028842800A8852BA02801B
:10232000028A42824A8852BA02828A8852BA8282D9
:1023300089798175AFF30080B0F90020B0F90210FF
:10234000511A11F5805F02DA43685B1E4360B1F5F4
:10235000805F416801DD491C416002EB41318160D1
:102360007047FEE72DE9F04116460446DDE90720F7
:10237000069DC4E90220002222616261C4E90035A1
:1023800000F09EFEA061204600F0BEFAA56931462D
:10239000284600F0C9FD216900F05AFC206107467B
:1023A0002846616900F08CFE314600F0B3FC01461E
:1023B000A06800F0B9FD06463946606800F0B4FD3B
:1023C00007462946206800F0AFFD394600F040FC82
:1023D000314600F03DFC064A06496561904202D94B
:1023E0001046BDE8F0818842FBDD0846F9E70000B1
:1023F0000090E2C60090E24670477047FEF704BEC8
:1024000030B58FB028216846FDF7DEFE14210AA8FA
:10241000FDF7DAFE01210804CDE900100024029442
:1024200002250491CDE907504FF4E0100990684669
:10243000FEF75EFF08B172B6FEE70F20CDE90A0590
:102440004FF48060CDE90C4002210AA80E94FEF7FB
:1024500073FE002801D072B6FEE70FB030BD7047A2
:102460000148FFF718BA0000580000200148FFF7A4
:1024700012BA0000A0000020F0B50268194B1A4CF7
:102480001A4D4FF08047984205D0B84203D0A04281
:1024900001D0A84203D122F070064A683243984224
:1024A00005D0B84203D0A04201D0A84203D122F403
:1024B0004074CA6822434C6922F0800222430260C1
:1024C0008A68C2620A688262984201D1096901631E
:1024D000012141610169C90703D0016921F00101AE
:1024E0000161F0BD002C01400004004000080040E4
:1024F00010B5846842EA032224F47F440A4322434D
:10250000826010BD826822F070020A4342F0070127
:102510008160704710B5036A046A24F00104046204
:10252000846924F0F00444EA021423F00A020A4306
:102530008461026210BD10B5036A046A24F01004BD
:102540000462846923F0A00324F4704444EA023254
:1025500043EA01118261016210BD10B5406A002199
:10256000C185C184FFF794FB10BD70B5446A206833
:10257000406994F84110C0F3C0100025212904D10E
:1025800018B1E584204600F08EF82068406994F880
:102590004210C0F38010222904D118B1E5852046ED
:1025A00000F05AF8606C40F0100060642046FFF7BD
:1025B0006FFB70BD10B50146406A096809684FF0AD
:1025C000000289062ED4C28501680C3151E8003F13
:1025D00023F4807341E80034002CF5D101681431F4
:1025E00051E8003F23F0010341E80034002CF5D10D
:1025F0000168143151E8003F23F0400341E8003402
:10260000002CF5D1202180F84210016B012909D15D
:1026100001680C3151E8003F23F0100341E8003419
:10262000002CF5D14263016B012902D0FFF726FD92
:1026300010BD818DFFF72BFB10BD10B5406A012145
:102640004163016B012902D0FFF738FD10BD818D78
:102650004908FFF71CFB10BD01680C3151E8002F41
:1026600022F4907241E80023002BF5D10168143167
:1026700051E8002F22F0010241E80023002BF5D1A0
:10268000016B012909D101680C3151E8002F22F0BA
:10269000100241E80023002BF5D1202180F84210E0
:1026A00000210163704701680C3151E8002F22F0CE
:1026B000C00241E80023002BF5D1202180F8411011
:1026C000704708B590F84210222901D0022008BDB9
:1026D00082684FF480539A4201D1016921B1816A25
:1026E0009A421BD04AB10AE00268816A5268C2F37A
:1026F00008020A80816A891C08E0026972B10268D6
:10270000526802F07F020A70816A491C8162C18DA1
:10271000491E0904090CC18503D01BE002685268F8
:10272000F1E70168CA6822F02002CA600168CA683D
:1027300022F48072CA6001684A6922F001024A618B
:10274000202180F8421000214163026B012A03D04E
:10275000FFF794FC002008BD016301680C3151E8CB
:10276000002F22F0100241E80023002BF5D1016870
:102770000A68D20602D50A6849680091818DFFF780
:1027800086FAE7E770B5044600680169E26821F45B
:102790004051114301612169A06808436169084300
:1027A0002168CA6841F20C639A430243CA602068F8
:1027B0004169A26921F44071114341611E492068B9
:1027C000884202D1FEF75EFD01E0FEF74BFD00EB13
:1027D000C00101EB0012606864218000B2FBF0F3DD
:1027E000B3FBF1F36FF018067343B2FBF0F5B2FBE5
:1027F000F0F605EB8305322303EB0515B5FBF1F588
:10280000B6FBF1F605F0F00505EB0615B2FBF0F6A8
:10281000B2FBF0F0B0FBF1F06FF01802504306EBA2
:10282000800003EB0010B0FBF1F0216800F00F0016
:102830002844886070BD00000038014038B58162CE
:1028400004468285002013466064222284F84220D8
:10285000E56B1B4AAA62E56B1A4AEA62E56B1A4A03
:102860002A63E26B50630A462168E06B091DFEF79C
:1028700093FA2068016840680090206948B1206898
:102880000C3050E8001F41F4807140E80012002A2B
:10289000F5D12068143050E8001F41F0010140E8F4
:1028A0000012002AF5D12068143050E8001F41F0D2
:1028B000400140E80012002AF5D1002038BD000098
:1028C000B52500083B2600086B2500080148FFF7E6
:1028D000E1B90000300100200148FDF701BF000010
:1028E00030000020FEE70907090E002804DB00F194
:1028F000E02080F80014704700F00F0000F1E020A5
:1029000080F8141D7047000070B5044680690949BD
:10291000094D884201D8A06903E0294600F098F9E2
:10292000A0610649884203DD294600F0C9FBA06189
:1029300070BD000000C07FC500F8FF4500C07F45A6
:10294000FEF76AFBFFF75CFDFFF704FCFFF7ECFB0B
:10295000FFF7C8FBFFF73EFCFFF770FCFFF7A2FC98
:10296000FFF7BCFC0748FDF7CDFC042206490748E9
:10297000FFF776FB0648FEF7F3FE0648FEF7F0FE8B
:10298000FEE700003000002000000020E8000020EA
:1029900058000020A000002021F00042A2F1605267
:1029A000B2F5801F01F0004328BFD2F17F6C0BD934
:1029B0005FEA001C43EAC20242EB507018BF704746
:1029C00028BF20F001007047B2F5801FBCBF184639
:1029D00070474FEA410C1CF5001F02D2084600F078
:1029E0006ABB70B500F0B4F800000089FFF7F6BFCD
:1029F0004FF00040A0F5800070470000DFF848C1AC
:102A000070B51CEA111E1EBF1CEA13159EEA0C0FBE
:102A100095EA0C0F00F06F8081EA030423EA4C135F
:102A20004EEAD47E21EA4C1141F4801143F4801324
:102A3000AE44A1FB024CA0FB0365AEF17F7E3619CC
:102A400055EB0C05A1FB034C4CF10003A0FB021C51
:102A500016EB0C06654153F10003094218BF46F01E
:102A6000010613F4007F0BD14FEA03314FEA053022
:102A7000340341EA155140EA16506FF003020AE0B0
:102A80004FEAC3214FEAC520F40241EA555140EA1A
:102A900056506FF0020202EB2E4201EB025585EA1E
:102AA000CE710AD05FEA440C18BF24F0004450F104
:102AB000000041F1000120EAD47040F2FE7C624542
:102AC00000D270BDA84214BF4FF080444FF0404484
:102AD000002E08BF0024BEF1806FA8BFA1F1C04145
:102AE000BDE8704080F282804FF0000001F1C041EB
:102AF00001F0004170479EEA0C0F0CEA131518BF55
:102B000095EA0C0F06D04FF0000081EA030E0EF09C
:102B1000004170BD00F01CF88900013E00F007B8CC
:102B200000F009B84FEA430C5FEA5C5C08D081EA28
:102B3000030100F05BB84FEA410C5FEA5C5CF6D140
:102B40004FF00000014970470000FF070000F87FC8
:102B50000EF1020E2EF0030E5EF8046B364205D421
:102B6000012A43EB030515F5001F12D8012841EB9C
:102B7000010C1CF5001F0CD80ED14FEAD17C15F5C5
:102B8000001F0CEB4C0C0CF1020C08BF4CEBD37C7F
:102B900004E04FF0080C01E04FEAD37C0CEB4C054D
:102BA00026FA05F606F00706B6F1040C06D20EEB7F
:102BB000860CBDE870404CF0010C6047DFE80CF07B
:102BC000090B02024FF000414FF00000A1F5002177
:102BD00070BD19461046012851EB010418BFD4F509
:102BE000001484BF002001F0004170BD0808A0F56A
:102BF00000114FEA3101704743004FEAD30C4FEA0E
:102C00003C0C43401FBF40070CF1605113F0FE4FD6
:102C100070471CF0006F03D100200CF0004170479A
:102C20000CF0004343EA507010B540EACC0000F0CD
:102C3000FCF900BF000000924FEA0001FFF7D6BF89
:102C40004FF000414FF00000A1F500217047000057
:102C500090EA010F48BF81F0004100F13882421A2A
:102C60003CBF801A89184FEAD0524FF07F4C1CEAC3
:102C7000410FA2EBD15318BF9CEA026F00F03B80DA
:102C80004FF0004C4CEA00204CEA012121FA03FCF1
:102C900010EB0C0C1ED202F1FF325FEA1C2040EB5D
:102CA000C25038BF70471CF07F0F4FEA400C18BF6E
:102CB000BCF17F4F38BF7047C3F12003994008BF74
:102CC00020F00100BCF17F4F38BF7047A0F1C04039
:102CD00000F0F1B94FEA3C00000A40EBC25028BFB7
:102CE0001CF0FF0F4FEA400CE6D018BFBCF17F4F3D
:102CF00038BF7047EAE79CEA026F05D010EA5C0F24
:102D000008BF00F00040704710B500F08EF900BF1A
:102D100064FBBE3E4FF47F0C1CEAD0121EBF1CEABF
:102D2000D11392EA0C0F93EA0C0F00F0858090EA21
:102D3000010F48BF42F4807240F4000C41F40000DF
:102D40002CF07F4120F07F4000B58142A2EB0302CE
:102D50000FF2081CACEB504EC0F100009EF800E0F2
:102D60004FEA4E0E00FB0EFC38BF49004FEA2C1C08
:102D700002F5FA020CFB0EF34FEACE1E4FEA112CBD
:102D80004FEAC1210EEB635E42EB22420EFB0CFCCC
:102D90004FEA1C5300FB03114FEA112C4FEA01319B
:102DA0000EFB0CFC4FEADC4C00FB0C11C14228BFAF
:102DB00009184CEB03335DF804EB10EB410143EBD6
:102DC000C250B2F57C0F38BF704729D512F0F00F12
:102DD0001CBF00F1C04000F00040704700818283BA
:102DE0008485868788898B8C8D8E8F91929395961A
:102DF00097999A9C9D9FA0A2A3A5A7A8AAACAEB0A4
:102E0000B2B3B5B7B9BCBEC0C2C5C7C9CCCED1D4A8
:102E1000D7D9DCDFE2E6E9ECF0F3F7FAFE000000D8
:102E20004FEA400C0CF1807CBCF17E4F28BF70470C
:102E3000B0F1C04000F03FB990EA010F0CEAD113A5
:102E400048BF42F48072624538BF634507D213F42D
:102E50007F0F16D080EA010000F00040704710B5E7
:102E600000F0E3F8097EFC3E00F005B880EA0100BE
:102E700000F00040704780EA010000F0004000F0E0
:102E80001AB912F47F0F04BF0248704780EA0100AC
:102E900000F011B90000C07F41000B0ED3F19E027B
:102EA00008D950F400034FEA032323FA02F048BF85
:102EB0004042704710B500F0B8F800BF4992248036
:102EC000002070476FF0004282EA20007047000047
:102ED00010F0004148BF4042B0FA80F310FA03F20C
:102EE000C3F19D030BD051EAC35101EB12205306ED
:102EF00038BF704700F1010008BF20F001007047A3
:102F0000B0FA80F310FA03F2C3F19D030AD0D90599
:102F100001EB1220530638BF704700F1010008BFD3
:102F200020F00100704700004FF47F0C1CEAD01223
:102F30001EBF1CEAD11392EA0C0F93EA0C0F00F0AB
:102F4000478090EA010F48BF42F480724FF0004C76
:102F50004CEA00204CEA012102EB0302A0FB011322
:102F6000A2F50002002918BF43F001035B0028BF4F
:102F70004FEA330342EB22425FEA132C4CEBC25080
:102F80002EBFBCEB436FB2F57C0F70474FEA036C6A
:102F9000BCF1004F08BF20F00100B2F57C0F38BF34
:102FA00070470BD582F0FF0212F5803FC8BF704713
:102FB00000F1C040D8BF00F00040704700F5000CA1
:102FC0005FEA4C0C48BF7047B0F1C04000F073B8E6
:102FD00090EA010F0CEAD11348BF42F480726245B7
:102FE00038BF634504D280EA010000F0004070471A
:102FF00010B500F01AF800BF8900013E00F007B8D4
:1030000000F009B85FEA410C5FEA1C6C08D080EA66
:10301000010000F050B85FEA400C5FEA1C6CF6D18A
:103020004FF00040A0F5800070470EF1020E2EF028
:10303000030E5EF8044B244204D44FEA4102B2F17D
:103040007F4F11D84FEA4003B3F17F4F0CD80ED118
:103050004FEAD07CB2F17F4F0CEB4C0C0CF1020C20
:1030600008BF4CEBD17C04E04FF0080C01E04FEAC4
:10307000D17C0CEB4C0324FA03F404F00704B4F104
:10308000040C06D20EEB840CBDE810404CF0010C91
:103090006047DFE80CF0070802024FF00040A0F59F
:1030A000800010BD0846420018BFD2F1807288BF70
:1030B00000F0004010BDFF2141EAD050C00570472C
:1030C00090EA010F48BF81F000413FF5C8AD421AB8
:1030D00004D882F00042A0EB020011444FEAD05223
:1030E0004FF07F4C1CEA410FA2EBD15318BF9CEA72
:1030F000026F4AD04FF0004C4CEA00204CEA01210C
:1031000021FA03FCB0EB0C0C0FD412F0FE0F36D0FA
:103110005FEA4C001DD5001240EBC25038BF70472B
:103120001CF03F0F18BF70470BE0A2F101025FEAED
:103130001C2040EBC25038BF70471CF07F0F18BFF7
:103140007047C3F12003994014BF401E20F00100D6
:10315000704780084FEA122308BF7047B0FA80FC1E
:10316000A2EB0C02CCF1280C60FA0CF093EA122FBF
:1031700004BF00EBC25070474FEAC3707047130A98
:103180005FEADC1008BF7047F6E79CEA026F04D0E4
:1031900010EA5C0F08BF0020704710B5FFF745FF2D
:1031A00040DFF63E81F00040704701020203040553
:1031B000060708090A0B0C0D0E0F10100000000086
:1031C00000000000010203040607080900000000D7
:1031D00001020304F4310008000000203000000068
:1031E000280100082432000830000020B808000040
:1031F0004401000800000000010000001000000071
:103200000000000000127A00000000000000000032
:1032100000008002000064000000000000000000C8
:0432200000000000AA
:04000005080000ED02
:00000001FF
